{
  "contractName": "Store",
  "abi": [
    {
      "constant": true,
      "inputs": [],
      "name": "manager",
      "outputs": [
        {
          "name": "",
          "type": "address"
        }
      ],
      "payable": false,
      "stateMutability": "view",
      "type": "function"
    },
    {
      "constant": true,
      "inputs": [
        {
          "name": "",
          "type": "uint256"
        }
      ],
      "name": "Orders",
      "outputs": [
        {
          "name": "customer",
          "type": "address"
        },
        {
          "name": "delivery",
          "type": "address"
        },
        {
          "name": "index",
          "type": "uint256"
        },
        {
          "name": "quantity",
          "type": "uint256"
        },
        {
          "name": "price",
          "type": "uint256"
        },
        {
          "name": "status",
          "type": "uint256"
        },
        {
          "name": "deliveryCharge",
          "type": "uint256"
        }
      ],
      "payable": false,
      "stateMutability": "view",
      "type": "function"
    },
    {
      "constant": true,
      "inputs": [
        {
          "name": "",
          "type": "uint256"
        }
      ],
      "name": "Products",
      "outputs": [
        {
          "name": "name",
          "type": "string"
        },
        {
          "name": "price",
          "type": "uint256"
        },
        {
          "name": "description",
          "type": "string"
        }
      ],
      "payable": false,
      "stateMutability": "view",
      "type": "function"
    },
    {
      "inputs": [],
      "payable": false,
      "stateMutability": "nonpayable",
      "type": "constructor"
    },
    {
      "constant": false,
      "inputs": [
        {
          "name": "_name",
          "type": "string"
        },
        {
          "name": "_price",
          "type": "uint256"
        },
        {
          "name": "_description",
          "type": "string"
        }
      ],
      "name": "addProduct",
      "outputs": [],
      "payable": false,
      "stateMutability": "nonpayable",
      "type": "function"
    },
    {
      "constant": false,
      "inputs": [
        {
          "name": "_index",
          "type": "uint256"
        },
        {
          "name": "_quantity",
          "type": "uint256"
        }
      ],
      "name": "placeOrder",
      "outputs": [],
      "payable": false,
      "stateMutability": "nonpayable",
      "type": "function"
    },
    {
      "constant": false,
      "inputs": [
        {
          "name": "_orderIndex",
          "type": "uint256"
        }
      ],
      "name": "takeOrder",
      "outputs": [],
      "payable": false,
      "stateMutability": "nonpayable",
      "type": "function"
    },
    {
      "constant": false,
      "inputs": [
        {
          "name": "_orderIndex",
          "type": "uint256"
        }
      ],
      "name": "rejectOrder",
      "outputs": [],
      "payable": false,
      "stateMutability": "nonpayable",
      "type": "function"
    },
    {
      "constant": false,
      "inputs": [
        {
          "name": "_orderIndex",
          "type": "uint256"
        }
      ],
      "name": "takeDelivery",
      "outputs": [],
      "payable": true,
      "stateMutability": "payable",
      "type": "function"
    },
    {
      "constant": false,
      "inputs": [
        {
          "name": "_orderIndex",
          "type": "uint256"
        }
      ],
      "name": "payToDelivery",
      "outputs": [],
      "payable": true,
      "stateMutability": "payable",
      "type": "function"
    }
  ],
  "bytecode": "0x608060405234801561001057600080fd5b50336000806101000a81548173ffffffffffffffffffffffffffffffffffffffff021916908373ffffffffffffffffffffffffffffffffffffffff160217905550610f95806100606000396000f3fe608060405260043610610099576000357c0100000000000000000000000000000000000000000000000000000000900463ffffffff16806324f638941461009e5780633b5d1a24146100d9578063481c6a75146101145780638026c0f91461016b578063843f61e2146101995780638f29695a146101de5780638fb326f214610347578063dba3f6aa14610418578063e93a5cd01461053f575b600080fd5b3480156100aa57600080fd5b506100d7600480360360208110156100c157600080fd5b810190808035906020019092919050505061056d565b005b3480156100e557600080fd5b50610112600480360360208110156100fc57600080fd5b81019080803590602001909291905050506105f0565b005b34801561012057600080fd5b50610129610674565b604051808273ffffffffffffffffffffffffffffffffffffffff1673ffffffffffffffffffffffffffffffffffffffff16815260200191505060405180910390f35b6101976004803603602081101561018157600080fd5b8101908080359060200190929190505050610699565b005b3480156101a557600080fd5b506101dc600480360360408110156101bc57600080fd5b8101908080359060200190929190803590602001909291905050506107c1565b005b3480156101ea57600080fd5b506103456004803603606081101561020157600080fd5b810190808035906020019064010000000081111561021e57600080fd5b82018360208201111561023057600080fd5b8035906020019184600183028401116401000000008311171561025257600080fd5b91908080601f016020809104026020016040519081016040528093929190818152602001838380828437600081840152601f19601f82011690508083019250505050505050919291929080359060200190929190803590602001906401000000008111156102bf57600080fd5b8201836020820111156102d157600080fd5b803590602001918460018302840111640100000000831117156102f357600080fd5b91908080601f016020809104026020016040519081016040528093929190818152602001838380828437600081840152601f19601f820116905080830192505050505050509192919290505050610966565b005b34801561035357600080fd5b506103806004803603602081101561036a57600080fd5b8101908080359060200190929190505050610a62565b604051808873ffffffffffffffffffffffffffffffffffffffff1673ffffffffffffffffffffffffffffffffffffffff1681526020018773ffffffffffffffffffffffffffffffffffffffff1673ffffffffffffffffffffffffffffffffffffffff16815260200186815260200185815260200184815260200183815260200182815260200197505050505050505060405180910390f35b34801561042457600080fd5b506104516004803603602081101561043b57600080fd5b8101908080359060200190929190505050610af3565b604051808060200184815260200180602001838103835286818151815260200191508051906020019080838360005b8381101561049b578082015181840152602081019050610480565b50505050905090810190601f1680156104c85780820380516001836020036101000a031916815260200191505b50838103825284818151815260200191508051906020019080838360005b838110156105015780820151818401526020810190506104e6565b50505050905090810190601f16801561052e5780820380516001836020036101000a031916815260200191505b509550505050505060405180910390f35b61056b6004803603602081101561055557600080fd5b8101908080359060200190929190505050610c5c565b005b6000809054906101000a900473ffffffffffffffffffffffffffffffffffffffff1673ffffffffffffffffffffffffffffffffffffffff163373ffffffffffffffffffffffffffffffffffffffff161415156105c857600080fd5b600280828154811015156105d857fe5b90600052602060002090600702016005018190555050565b6000809054906101000a900473ffffffffffffffffffffffffffffffffffffffff1673ffffffffffffffffffffffffffffffffffffffff163373ffffffffffffffffffffffffffffffffffffffff1614151561064b57600080fd5b600160028281548110151561065c57fe5b90600052602060002090600702016005018190555050565b6000809054906101000a900473ffffffffffffffffffffffffffffffffffffffff1681565b60016002828154811015156106aa57fe5b9060005260206000209060070201600501541415156106c857600080fd5b6002818154811015156106d757fe5b90600052602060002090600702016004015434101515156106f757600080fd5b6000809054906101000a900473ffffffffffffffffffffffffffffffffffffffff1673ffffffffffffffffffffffffffffffffffffffff166108fc349081150290604051600060405180830381858888f1935050505015801561075e573d6000803e3d6000fd5b503360028281548110151561076f57fe5b906000526020600020906007020160010160006101000a81548173ffffffffffffffffffffffffffffffffffffffff021916908373ffffffffffffffffffffffffffffffffffffffff16021790555050565b6107c9610e38565b60e0604051908101604052803373ffffffffffffffffffffffffffffffffffffffff1681526020016000809054906101000a900473ffffffffffffffffffffffffffffffffffffffff1673ffffffffffffffffffffffffffffffffffffffff16815260200184815260200183815260200160018581548110151561084957fe5b9060005260206000209060030201600101548402815260200160008152602001601481525090506002819080600181540180825580915050906001820390600052602060002090600702016000909192909190915060008201518160000160006101000a81548173ffffffffffffffffffffffffffffffffffffffff021916908373ffffffffffffffffffffffffffffffffffffffff16021790555060208201518160010160006101000a81548173ffffffffffffffffffffffffffffffffffffffff021916908373ffffffffffffffffffffffffffffffffffffffff16021790555060408201518160020155606082015181600301556080820151816004015560a0820151816005015560c08201518160060155505050505050565b6000809054906101000a900473ffffffffffffffffffffffffffffffffffffffff1673ffffffffffffffffffffffffffffffffffffffff163373ffffffffffffffffffffffffffffffffffffffff161415156109c157600080fd5b6109c9610ea2565b606060405190810160405280858152602001848152602001838152509050600181908060018154018082558091505090600182039060005260206000209060030201600090919290919091506000820151816000019080519060200190610a31929190610ec4565b50602082015181600101556040820151816002019080519060200190610a58929190610ec4565b5050505050505050565b600281815481101515610a7157fe5b90600052602060002090600702016000915090508060000160009054906101000a900473ffffffffffffffffffffffffffffffffffffffff16908060010160009054906101000a900473ffffffffffffffffffffffffffffffffffffffff16908060020154908060030154908060040154908060050154908060060154905087565b600181815481101515610b0257fe5b9060005260206000209060030201600091509050806000018054600181600116156101000203166002900480601f016020809104026020016040519081016040528092919081815260200182805460018160011615610100020316600290048015610bae5780601f10610b8357610100808354040283529160200191610bae565b820191906000526020600020905b815481529060010190602001808311610b9157829003601f168201915b505050505090806001015490806002018054600181600116156101000203166002900480601f016020809104026020016040519081016040528092919081815260200182805460018160011615610100020316600290048015610c525780601f10610c2757610100808354040283529160200191610c52565b820191906000526020600020905b815481529060010190602001808311610c3557829003601f168201915b5050505050905083565b610c64610e38565b600282815481101515610c7357fe5b906000526020600020906007020160e060405190810160405290816000820160009054906101000a900473ffffffffffffffffffffffffffffffffffffffff1673ffffffffffffffffffffffffffffffffffffffff1673ffffffffffffffffffffffffffffffffffffffff1681526020016001820160009054906101000a900473ffffffffffffffffffffffffffffffffffffffff1673ffffffffffffffffffffffffffffffffffffffff1673ffffffffffffffffffffffffffffffffffffffff168152602001600282015481526020016003820154815260200160048201548152602001600582015481526020016006820154815250509050806000015173ffffffffffffffffffffffffffffffffffffffff163373ffffffffffffffffffffffffffffffffffffffff16141515610dab57600080fd5b8060c0015181608001510134141515610dc357600080fd5b806020015173ffffffffffffffffffffffffffffffffffffffff166108fc349081150290604051600060405180830381858888f19350505050158015610e0d573d6000803e3d6000fd5b506003600283815481101515610e1f57fe5b9060005260206000209060070201600501819055505050565b60e060405190810160405280600073ffffffffffffffffffffffffffffffffffffffff168152602001600073ffffffffffffffffffffffffffffffffffffffff16815260200160008152602001600081526020016000815260200160008152602001600081525090565b6060604051908101604052806060815260200160008152602001606081525090565b828054600181600116156101000203166002900490600052602060002090601f016020900481019282601f10610f0557805160ff1916838001178555610f33565b82800160010185558215610f33579182015b82811115610f32578251825591602001919060010190610f17565b5b509050610f409190610f44565b5090565b610f6691905b80821115610f62576000816000905550600101610f4a565b5090565b9056fea165627a7a723058207393efdaf19e9f88517eab6f7c639b39fc67215b674053c4d13d261df84d83b10029",
  "source": "pragma solidity ^0.5.0;\n\n//store contract for shops\ncontract Store{\n    //structs\n    struct Product{\n        string name;\n        uint price;\n        string description;\n    }\n    struct Order{\n        address customer;\n        address payable delivery;\n        uint index;\n        uint quantity;\n        uint price;\n        uint status;\n        uint deliveryCharge;\n    }\n\n    //variables\n    address payable public  manager;\n    Product[] public Products;\n    Order[] public Orders;\n\n    //modifiers\n    modifier restricted{\n        require(msg.sender==manager);\n        _;\n    }\n\n    //functions\n    constructor() public {\n        manager=msg.sender;\n    }\n\n    function addProduct(string memory _name,uint _price,string memory _description) public restricted {\n        Product memory newProduct=Product({\n            name:_name,\n            price:_price,\n            description:_description\n        });\n        Products.push(newProduct);\n    }\n\n    function placeOrder(uint _index,uint _quantity) external {\n    Order memory newOrder=Order({\n        customer:msg.sender,\n        delivery:manager,\n        index:_index,\n        quantity:_quantity,\n        price:_quantity*Products[_index].price,\n        status:0,\n        deliveryCharge:20\n    });\n    Orders.push(newOrder);\n\n    }\n\n    function takeOrder(uint _orderIndex) public restricted{\n        Orders[_orderIndex].status=1;\n    }\n\n    function rejectOrder(uint _orderIndex) public restricted{\n        Orders[_orderIndex].status=2;\n    }\n\n    function takeDelivery(uint _orderIndex) public payable{\n        require(Orders[_orderIndex].status==1);\n        require(msg.value>=Orders[_orderIndex].price);\n        manager.transfer(msg.value);\n        Orders[_orderIndex].delivery=msg.sender;\n    }\n\n    function payToDelivery(uint _orderIndex) public payable{\n        Order memory _currentOrder=Orders[_orderIndex];\n        require(msg.sender==_currentOrder.customer);\n        require(msg.value==_currentOrder.price+_currentOrder.deliveryCharge);\n        _currentOrder.delivery.transfer(msg.value);\n        Orders[_orderIndex].status=3;\n\n    }\n\n\n}\n",
  "sourcePath": "/home/praveen/Desktop/weird-commerce/contracts/Store.sol",
  "compiler": {
    "name": "solc",
    "version": "0.5.0+commit.1d4f565a.Emscripten.clang"
  },
  "schemaVersion": "3.0.3",
  "updatedAt": "2019-03-15T19:16:49.949Z",
  "devdoc": {
    "methods": {}
  },
  "userdoc": {
    "methods": {}
  }
}